:100000000EC01DC01CC01BC01AC019C018C017C02C
:1000100016C015C014C013C012C011C010C01124E6
:100020001FBECFE5D2E0DEBFCDBF20E0A0E6B0E04E
:1000300001C01D92A436B207E1F75CD09CC0E0CFAE
:10004000009741F02CE0000000002150E1F7000093
:100050000197F6CF0895CF93DF93EB0112BE18BE40
:10006000442329F022E42ABD21E023BF01C0C09827
:10007000E7DF1ABC13BEC09ACE01DF91CF91E0CF6B
:100080001ABC13BE88B3856088BB88E10FB6F894AC
:1000900081BD11BC0FBE88EE93E0D2DF80E385BF47
:1000A00088950895C29888EB9BE0CADFC29A0895AC
:1000B000CF93C82FF7DFC15029F0A89588E99AE3BC
:1000C000BFDFF8CFA895CF910895CF93DF93D82FB6
:1000D000C0E0CD1761F0C29880E593ECB1DFA89540
:1000E000C29A80E593ECACDFA895CF5FF2CFDF91A9
:1000F000CF91089510BE1ABC13BE84B714BE98E108
:1001000091BD11BC95E097BB97E098BB82FF03C0FF
:1001100082E0DBDFB5DF88E893E192DF88EA91E6F1
:100120008FDF29E288E190E00FB6F894A89581BDB1
:100130000FBE21BDA89589E789BD41E06DED72E054
:100140008DE290E088DF41E06DED72E08DE290E0BD
:1001500082DF88E10FB6F89481BD11BC0FBE8CED33
:100160009FEF6EDF8CED9FEF6BDF84E0A1DF88DF18
:0A01700080E090E00895F894FFCFBE
:00000001FF
